{
  "contractName": "exercise",
  "abi": [
    {
      "constant": true,
      "inputs": [
        {
          "name": "",
          "type": "address"
        },
        {
          "name": "",
          "type": "uint256"
        }
      ],
      "name": "isVotedAdd",
      "outputs": [
        {
          "name": "",
          "type": "bool"
        }
      ],
      "payable": false,
      "stateMutability": "view",
      "type": "function"
    },
    {
      "constant": true,
      "inputs": [
        {
          "name": "",
          "type": "uint256"
        }
      ],
      "name": "listVoteAdd",
      "outputs": [
        {
          "name": "adrFrom",
          "type": "address"
        },
        {
          "name": "adrNew",
          "type": "address"
        },
        {
          "name": "vote",
          "type": "uint256"
        },
        {
          "name": "success",
          "type": "bool"
        }
      ],
      "payable": false,
      "stateMutability": "view",
      "type": "function"
    },
    {
      "constant": true,
      "inputs": [],
      "name": "balanceGroup",
      "outputs": [
        {
          "name": "",
          "type": "uint256"
        }
      ],
      "payable": false,
      "stateMutability": "view",
      "type": "function"
    },
    {
      "constant": true,
      "inputs": [
        {
          "name": "",
          "type": "uint256"
        }
      ],
      "name": "listVoteDep",
      "outputs": [
        {
          "name": "adrFrom",
          "type": "address"
        },
        {
          "name": "money",
          "type": "uint256"
        },
        {
          "name": "vote",
          "type": "uint256"
        },
        {
          "name": "success",
          "type": "bool"
        }
      ],
      "payable": false,
      "stateMutability": "view",
      "type": "function"
    },
    {
      "constant": true,
      "inputs": [
        {
          "name": "",
          "type": "address"
        },
        {
          "name": "",
          "type": "uint256"
        }
      ],
      "name": "isVoteWith",
      "outputs": [
        {
          "name": "",
          "type": "bool"
        }
      ],
      "payable": false,
      "stateMutability": "view",
      "type": "function"
    },
    {
      "constant": true,
      "inputs": [
        {
          "name": "",
          "type": "uint256"
        }
      ],
      "name": "listVoteRemo",
      "outputs": [
        {
          "name": "adrFrom",
          "type": "address"
        },
        {
          "name": "adrOld",
          "type": "address"
        },
        {
          "name": "vote",
          "type": "uint256"
        },
        {
          "name": "success",
          "type": "bool"
        }
      ],
      "payable": false,
      "stateMutability": "view",
      "type": "function"
    },
    {
      "constant": true,
      "inputs": [
        {
          "name": "",
          "type": "address"
        },
        {
          "name": "",
          "type": "uint256"
        }
      ],
      "name": "isVotedRemo",
      "outputs": [
        {
          "name": "",
          "type": "bool"
        }
      ],
      "payable": false,
      "stateMutability": "view",
      "type": "function"
    },
    {
      "constant": true,
      "inputs": [
        {
          "name": "",
          "type": "address"
        },
        {
          "name": "",
          "type": "uint256"
        }
      ],
      "name": "isVoteDep",
      "outputs": [
        {
          "name": "",
          "type": "bool"
        }
      ],
      "payable": false,
      "stateMutability": "view",
      "type": "function"
    },
    {
      "constant": true,
      "inputs": [],
      "name": "countOwner",
      "outputs": [
        {
          "name": "",
          "type": "uint256"
        }
      ],
      "payable": false,
      "stateMutability": "view",
      "type": "function"
    },
    {
      "constant": true,
      "inputs": [
        {
          "name": "",
          "type": "uint256"
        }
      ],
      "name": "listVoteWith",
      "outputs": [
        {
          "name": "adrFrom",
          "type": "address"
        },
        {
          "name": "adrTo",
          "type": "address"
        },
        {
          "name": "money",
          "type": "uint256"
        },
        {
          "name": "vote",
          "type": "uint256"
        },
        {
          "name": "success",
          "type": "bool"
        }
      ],
      "payable": false,
      "stateMutability": "view",
      "type": "function"
    },
    {
      "inputs": [],
      "payable": false,
      "stateMutability": "nonpayable",
      "type": "constructor"
    },
    {
      "anonymous": false,
      "inputs": [
        {
          "indexed": true,
          "name": "owner",
          "type": "address"
        },
        {
          "indexed": false,
          "name": "value",
          "type": "uint256"
        }
      ],
      "name": "Deposit",
      "type": "event"
    },
    {
      "anonymous": false,
      "inputs": [
        {
          "indexed": true,
          "name": "owner",
          "type": "address"
        },
        {
          "indexed": false,
          "name": "value",
          "type": "uint256"
        }
      ],
      "name": "Withdraw",
      "type": "event"
    },
    {
      "constant": true,
      "inputs": [],
      "name": "getBalance",
      "outputs": [
        {
          "name": "",
          "type": "uint256"
        }
      ],
      "payable": false,
      "stateMutability": "view",
      "type": "function"
    },
    {
      "constant": true,
      "inputs": [],
      "name": "SeebalanceGroup",
      "outputs": [
        {
          "name": "",
          "type": "uint256"
        }
      ],
      "payable": false,
      "stateMutability": "view",
      "type": "function"
    },
    {
      "constant": false,
      "inputs": [
        {
          "name": "newOwner",
          "type": "address"
        }
      ],
      "name": "addOwner",
      "outputs": [],
      "payable": false,
      "stateMutability": "nonpayable",
      "type": "function"
    },
    {
      "constant": false,
      "inputs": [
        {
          "name": "idVotedAdd",
          "type": "uint256"
        }
      ],
      "name": "voteAddMem",
      "outputs": [],
      "payable": false,
      "stateMutability": "nonpayable",
      "type": "function"
    },
    {
      "constant": false,
      "inputs": [
        {
          "name": "newOwner",
          "type": "address"
        }
      ],
      "name": "execAddOwner",
      "outputs": [],
      "payable": false,
      "stateMutability": "nonpayable",
      "type": "function"
    },
    {
      "constant": false,
      "inputs": [
        {
          "name": "amount",
          "type": "uint256"
        }
      ],
      "name": "GroupDeposit",
      "outputs": [],
      "payable": true,
      "stateMutability": "payable",
      "type": "function"
    },
    {
      "constant": false,
      "inputs": [
        {
          "name": "idVoteDep",
          "type": "uint256"
        }
      ],
      "name": "VoteforDeposit",
      "outputs": [],
      "payable": false,
      "stateMutability": "nonpayable",
      "type": "function"
    },
    {
      "constant": false,
      "inputs": [
        {
          "name": "amount",
          "type": "uint256"
        }
      ],
      "name": "deposit0",
      "outputs": [],
      "payable": true,
      "stateMutability": "payable",
      "type": "function"
    },
    {
      "constant": false,
      "inputs": [
        {
          "name": "amount",
          "type": "uint256"
        }
      ],
      "name": "deposit",
      "outputs": [],
      "payable": true,
      "stateMutability": "payable",
      "type": "function"
    },
    {
      "constant": false,
      "inputs": [
        {
          "name": "amount",
          "type": "uint256"
        }
      ],
      "name": "execDeposit",
      "outputs": [],
      "payable": false,
      "stateMutability": "nonpayable",
      "type": "function"
    },
    {
      "constant": false,
      "inputs": [
        {
          "name": "amount",
          "type": "uint256"
        },
        {
          "name": "_to",
          "type": "address"
        }
      ],
      "name": "withdrawTo",
      "outputs": [],
      "payable": true,
      "stateMutability": "payable",
      "type": "function"
    },
    {
      "constant": false,
      "inputs": [
        {
          "name": "oldOwmer",
          "type": "address"
        }
      ],
      "name": "removeOwner",
      "outputs": [],
      "payable": false,
      "stateMutability": "nonpayable",
      "type": "function"
    },
    {
      "constant": false,
      "inputs": [
        {
          "name": "idVoteRemo",
          "type": "uint256"
        }
      ],
      "name": "VoteforRemove",
      "outputs": [],
      "payable": false,
      "stateMutability": "nonpayable",
      "type": "function"
    },
    {
      "constant": false,
      "inputs": [
        {
          "name": "oldOwner",
          "type": "address"
        }
      ],
      "name": "execRemove",
      "outputs": [],
      "payable": false,
      "stateMutability": "nonpayable",
      "type": "function"
    },
    {
      "constant": false,
      "inputs": [
        {
          "name": "amount",
          "type": "uint256"
        },
        {
          "name": "_to",
          "type": "address"
        }
      ],
      "name": "GroupWithdrawTo",
      "outputs": [],
      "payable": true,
      "stateMutability": "payable",
      "type": "function"
    },
    {
      "constant": false,
      "inputs": [
        {
          "name": "idVoteWith",
          "type": "uint256"
        }
      ],
      "name": "VoteforWithdraw",
      "outputs": [],
      "payable": false,
      "stateMutability": "nonpayable",
      "type": "function"
    }
  ],
  "bytecode": "0x608060405260006001553073ffffffffffffffffffffffffffffffffffffffff16316002556000600b556000600c556000600d556000600e5534801561004457600080fd5b5060016000803373ffffffffffffffffffffffffffffffffffffffff1673ffffffffffffffffffffffffffffffffffffffff16815260200190815260200160002060006101000a81548160ff02191690831515021790555060018060008282540192505081905550612d17806100bb6000396000f300608060405260043610610154576000357c0100000000000000000000000000000000000000000000000000000000900463ffffffff168063087d24991461015957806312065fe0146101be578063173825d9146101e957806317700ea71461022c578063209ba2a4146102de5780632943e89f146103095780632a46b3f2146103365780632c4df825146103635780633334fb89146103e95780633c7461da1461044e5780633d5c768f14610500578063484bd4ec1461054057806357a75b791461056b5780635ef4f526146105ae5780636dc2760e146106135780637065cb4814610633578063811a934e146106765780638ddf10ce146106db57806395fb759514610706578063a7a66d1014610733578063b6b55f2514610776578063c496515e14610796578063c86283c81461084f578063d363004d1461088f578063db9c0520146108bc578063e0e1abb0146108e9575b600080fd5b34801561016557600080fd5b506101a4600480360381019080803573ffffffffffffffffffffffffffffffffffffffff16906020019092919080359060200190929190505050610909565b604051808215151515815260200191505060405180910390f35b3480156101ca57600080fd5b506101d3610938565b6040518082815260200191505060405180910390f35b3480156101f557600080fd5b5061022a600480360381019080803573ffffffffffffffffffffffffffffffffffffffff169060200190929190505050610957565b005b34801561023857600080fd5b5061025760048036038101908080359060200190929190505050610ccc565b604051808573ffffffffffffffffffffffffffffffffffffffff1673ffffffffffffffffffffffffffffffffffffffff1681526020018473ffffffffffffffffffffffffffffffffffffffff1673ffffffffffffffffffffffffffffffffffffffff1681526020018381526020018215151515815260200194505050505060405180910390f35b3480156102ea57600080fd5b506102f3610d49565b6040518082815260200191505060405180910390f35b34801561031557600080fd5b5061033460048036038101908080359060200190929190505050610d4f565b005b34801561034257600080fd5b5061036160048036038101908080359060200190929190505050611052565b005b34801561036f57600080fd5b5061038e60048036038101908080359060200190929190505050611326565b604051808573ffffffffffffffffffffffffffffffffffffffff1673ffffffffffffffffffffffffffffffffffffffff1681526020018481526020018381526020018215151515815260200194505050505060405180910390f35b3480156103f557600080fd5b50610434600480360381019080803573ffffffffffffffffffffffffffffffffffffffff16906020019092919080359060200190929190505050611383565b604051808215151515815260200191505060405180910390f35b34801561045a57600080fd5b50610479600480360381019080803590602001909291905050506113b2565b604051808573ffffffffffffffffffffffffffffffffffffffff1673ffffffffffffffffffffffffffffffffffffffff1681526020018473ffffffffffffffffffffffffffffffffffffffff1673ffffffffffffffffffffffffffffffffffffffff1681526020018381526020018215151515815260200194505050505060405180910390f35b61053e60048036038101908080359060200190929190803573ffffffffffffffffffffffffffffffffffffffff16906020019092919050505061142f565b005b34801561054c57600080fd5b5061055561164a565b6040518082815260200191505060405180910390f35b34801561057757600080fd5b506105ac600480360381019080803573ffffffffffffffffffffffffffffffffffffffff169060200190929190505050611654565b005b3480156105ba57600080fd5b506105f9600480360381019080803573ffffffffffffffffffffffffffffffffffffffff16906020019092919080359060200190929190505050611785565b604051808215151515815260200191505060405180910390f35b610631600480360381019080803590602001909291905050506117b4565b005b34801561063f57600080fd5b50610674600480360381019080803573ffffffffffffffffffffffffffffffffffffffff16906020019092919050505061196b565b005b34801561068257600080fd5b506106c1600480360381019080803573ffffffffffffffffffffffffffffffffffffffff16906020019092919080359060200190929190505050611d5a565b604051808215151515815260200191505060405180910390f35b3480156106e757600080fd5b506106f0611d89565b6040518082815260200191505060405180910390f35b34801561071257600080fd5b5061073160048036038101908080359060200190929190505050611d8f565b005b34801561073f57600080fd5b50610774600480360381019080803573ffffffffffffffffffffffffffffffffffffffff16906020019092919050505061209a565b005b610794600480360381019080803590602001909291905050506121cb565b005b3480156107a257600080fd5b506107c1600480360381019080803590602001909291905050506123b5565b604051808673ffffffffffffffffffffffffffffffffffffffff1673ffffffffffffffffffffffffffffffffffffffff1681526020018573ffffffffffffffffffffffffffffffffffffffff1673ffffffffffffffffffffffffffffffffffffffff168152602001848152602001838152602001821515151581526020019550505050505060405180910390f35b61088d60048036038101908080359060200190929190803573ffffffffffffffffffffffffffffffffffffffff169060200190929190505050612438565b005b34801561089b57600080fd5b506108ba6004803603810190808035906020019092919050505061264d565b005b3480156108c857600080fd5b506108e760048036038101908080359060200190929190505050612950565b005b61090760048036038101908080359060200190929190505050612a78565b005b60096020528160005260406000206020528060005260406000206000915091509054906101000a900460ff1681565b60003073ffffffffffffffffffffffffffffffffffffffff1631905090565b61095f612b9e565b600115156000803373ffffffffffffffffffffffffffffffffffffffff1673ffffffffffffffffffffffffffffffffffffffff16815260200190815260200160002060009054906101000a900460ff161515141515610a26576040517f08c379a00000000000000000000000000000000000000000000000000000000081526004018080602001828103825260118152602001807f6f6e6c79204f776e65722063616e20646f00000000000000000000000000000081525060200191505060405180910390fd5b8173ffffffffffffffffffffffffffffffffffffffff163373ffffffffffffffffffffffffffffffffffffffff1614151515610aca576040517f08c379a00000000000000000000000000000000000000000000000000000000081526004018080602001828103825260158152602001807f646f6e27742072656d6f766520796f757273656c66000000000000000000000081525060200191505060405180910390fd5b600115156000808473ffffffffffffffffffffffffffffffffffffffff1673ffffffffffffffffffffffffffffffffffffffff16815260200190815260200160002060009054906101000a900460ff161515141515610b91576040517f08c379a000000000000000000000000000000000000000000000000000000000815260040180806020018281038252601f8152602001807f746869732061646472657373206973206e6f742061206f776e6572207965740081525060200191505060405180910390fd5b6080604051908101604052803373ffffffffffffffffffffffffffffffffffffffff1681526020018373ffffffffffffffffffffffffffffffffffffffff16815260200160008152602001600015158152509050600d600081548092919060010191905055508060066000600d54815260200190815260200160002060008201518160000160006101000a81548173ffffffffffffffffffffffffffffffffffffffff021916908373ffffffffffffffffffffffffffffffffffffffff16021790555060208201518160010160006101000a81548173ffffffffffffffffffffffffffffffffffffffff021916908373ffffffffffffffffffffffffffffffffffffffff1602179055506040820151816002015560608201518160030160006101000a81548160ff0219169083151502179055509050505050565b60056020528060005260406000206000915090508060000160009054906101000a900473ffffffffffffffffffffffffffffffffffffffff16908060010160009054906101000a900473ffffffffffffffffffffffffffffffffffffffff16908060020154908060030160009054906101000a900460ff16905084565b60025481565b600115156000803373ffffffffffffffffffffffffffffffffffffffff1673ffffffffffffffffffffffffffffffffffffffff16815260200190815260200160002060009054906101000a900460ff161515141515610e16576040517f08c379a00000000000000000000000000000000000000000000000000000000081526004018080602001828103825260118152602001807f6f6e6c79204f776e65722063616e20646f00000000000000000000000000000081525060200191505060405180910390fd5b60001515600960003373ffffffffffffffffffffffffffffffffffffffff1673ffffffffffffffffffffffffffffffffffffffff168152602001908152602001600020600083815260200190815260200160002060009054906101000a900460ff161515141515610eef576040517f08c379a000000000000000000000000000000000000000000000000000000000815260040180806020018281038252600f8152602001807f546869732061647220766f74656420000000000000000000000000000000000081525060200191505060405180910390fd5b600160056000838152602001908152602001600020600201600082825401925050819055506001600960003373ffffffffffffffffffffffffffffffffffffffff1673ffffffffffffffffffffffffffffffffffffffff168152602001908152602001600020600083815260200190815260200160002060006101000a81548160ff0219169083151502179055506064603160015402811515610f8e57fe5b046005600083815260200190815260200160002060020154111561101f5760016005600083815260200190815260200160002060030160006101000a81548160ff02191690831515021790555061101a6005600083815260200190815260200160002060010160009054906101000a900473ffffffffffffffffffffffffffffffffffffffff16611654565b61104f565b60006005600083815260200190815260200160002060030160006101000a81548160ff0219169083151502179055505b50565b600115156000803373ffffffffffffffffffffffffffffffffffffffff1673ffffffffffffffffffffffffffffffffffffffff16815260200190815260200160002060009054906101000a900460ff161515141515611119576040517f08c379a00000000000000000000000000000000000000000000000000000000081526004018080602001828103825260118152602001807f6f6e6c79204f776e65722063616e20646f00000000000000000000000000000081525060200191505060405180910390fd5b60001515600760003373ffffffffffffffffffffffffffffffffffffffff1673ffffffffffffffffffffffffffffffffffffffff168152602001908152602001600020600083815260200190815260200160002060009054906101000a900460ff1615151415156111f2576040517f08c379a00000000000000000000000000000000000000000000000000000000081526004018080602001828103825260128152602001807f54686973206164647265737320766f746564000000000000000000000000000081525060200191505060405180910390fd5b600160036000838152602001908152602001600020600201600082825401925050819055506001600760003373ffffffffffffffffffffffffffffffffffffffff1673ffffffffffffffffffffffffffffffffffffffff168152602001908152602001600020600083815260200190815260200160002060006101000a81548160ff021916908315150217905550600154600360008381526020019081526020016000206002015414156112f35760016003600083815260200190815260200160002060030160006101000a81548160ff0219169083151502179055506112ee6003600083815260200190815260200160002060010154612950565b611323565b60006003600083815260200190815260200160002060030160006101000a81548160ff0219169083151502179055505b50565b60036020528060005260406000206000915090508060000160009054906101000a900473ffffffffffffffffffffffffffffffffffffffff16908060010154908060020154908060030160009054906101000a900460ff16905084565b60086020528160005260406000206020528060005260406000206000915091509054906101000a900460ff1681565b60066020528060005260406000206000915090508060000160009054906101000a900473ffffffffffffffffffffffffffffffffffffffff16908060010160009054906101000a900473ffffffffffffffffffffffffffffffffffffffff16908060020154908060030160009054906101000a900460ff16905084565b611437612bf5565b600115156000803373ffffffffffffffffffffffffffffffffffffffff1673ffffffffffffffffffffffffffffffffffffffff16815260200190815260200160002060009054906101000a900460ff1615151415156114fe576040517f08c379a00000000000000000000000000000000000000000000000000000000081526004018080602001828103825260118152602001807f6f6e6c79204f776e65722063616e20646f00000000000000000000000000000081525060200191505060405180910390fd5b60a0604051908101604052803373ffffffffffffffffffffffffffffffffffffffff1681526020018373ffffffffffffffffffffffffffffffffffffffff16815260200184815260200160008152602001600015158152509050600e600081548092919060010191905055508060046000600e54815260200190815260200160002060008201518160000160006101000a81548173ffffffffffffffffffffffffffffffffffffffff021916908373ffffffffffffffffffffffffffffffffffffffff16021790555060208201518160010160006101000a81548173ffffffffffffffffffffffffffffffffffffffff021916908373ffffffffffffffffffffffffffffffffffffffff160217905550604082015181600201556060820151816003015560808201518160040160006101000a81548160ff021916908315150217905550905050505050565b6000600254905090565b600115156000803373ffffffffffffffffffffffffffffffffffffffff1673ffffffffffffffffffffffffffffffffffffffff16815260200190815260200160002060009054906101000a900460ff16151514151561171b576040517f08c379a00000000000000000000000000000000000000000000000000000000081526004018080602001828103825260118152602001807f6f6e6c79204f776e65722063616e20646f00000000000000000000000000000081525060200191505060405180910390fd5b60016000808373ffffffffffffffffffffffffffffffffffffffff1673ffffffffffffffffffffffffffffffffffffffff16815260200190815260200160002060006101000a81548160ff0219169083151502179055506001806000828254019250508190555050565b600a6020528160005260406000206020528060005260406000206000915091509054906101000a900460ff1681565b6117bc612c53565b600115156000803373ffffffffffffffffffffffffffffffffffffffff1673ffffffffffffffffffffffffffffffffffffffff16815260200190815260200160002060009054906101000a900460ff161515141515611883576040517f08c379a00000000000000000000000000000000000000000000000000000000081526004018080602001828103825260118152602001807f6f6e6c79204f776e65722063616e20646f00000000000000000000000000000081525060200191505060405180910390fd5b6080604051908101604052803373ffffffffffffffffffffffffffffffffffffffff16815260200183815260200160008152602001600015158152509050600c600081548092919060010191905055508060036000600c54815260200190815260200160002060008201518160000160006101000a81548173ffffffffffffffffffffffffffffffffffffffff021916908373ffffffffffffffffffffffffffffffffffffffff160217905550602082015181600101556040820151816002015560608201518160030160006101000a81548160ff0219169083151502179055509050505050565b611973612c94565b600115156000803373ffffffffffffffffffffffffffffffffffffffff1673ffffffffffffffffffffffffffffffffffffffff16815260200190815260200160002060009054906101000a900460ff161515141515611a3a576040517f08c379a00000000000000000000000000000000000000000000000000000000081526004018080602001828103825260118152602001807f6f6e6c79204f776e65722063616e20646f00000000000000000000000000000081525060200191505060405180910390fd5b8173ffffffffffffffffffffffffffffffffffffffff163373ffffffffffffffffffffffffffffffffffffffff1614151515611ade576040517f08c379a00000000000000000000000000000000000000000000000000000000081526004018080602001828103825260128152602001807f646f6e27742061646420796f757273656c66000000000000000000000000000081525060200191505060405180910390fd5b600115156000808473ffffffffffffffffffffffffffffffffffffffff1673ffffffffffffffffffffffffffffffffffffffff16815260200190815260200160002060009054906101000a900460ff16151514151515611ba6576040517f08c379a00000000000000000000000000000000000000000000000000000000081526004018080602001828103825260188152602001807f7468697320697320616c72656164792061206d656d626572000000000000000081525060200191505060405180910390fd5b600180541415611c1e5760016000808473ffffffffffffffffffffffffffffffffffffffff1673ffffffffffffffffffffffffffffffffffffffff16815260200190815260200160002060006101000a81548160ff021916908315150217905550600160008154809291906001019190505550611d56565b6080604051908101604052803373ffffffffffffffffffffffffffffffffffffffff1681526020018373ffffffffffffffffffffffffffffffffffffffff16815260200160008152602001600015158152509050600b600081548092919060010191905055508060056000600b54815260200190815260200160002060008201518160000160006101000a81548173ffffffffffffffffffffffffffffffffffffffff021916908373ffffffffffffffffffffffffffffffffffffffff16021790555060208201518160010160006101000a81548173ffffffffffffffffffffffffffffffffffffffff021916908373ffffffffffffffffffffffffffffffffffffffff1602179055506040820151816002015560608201518160030160006101000a81548160ff0219169083151502179055509050505b5050565b60076020528160005260406000206020528060005260406000206000915091509054906101000a900460ff1681565b60015481565b600115156000803373ffffffffffffffffffffffffffffffffffffffff1673ffffffffffffffffffffffffffffffffffffffff16815260200190815260200160002060009054906101000a900460ff161515141515611e56576040517f08c379a00000000000000000000000000000000000000000000000000000000081526004018080602001828103825260118152602001807f6f6e6c79204f776e65722063616e20646f00000000000000000000000000000081525060200191505060405180910390fd5b60001515600860003373ffffffffffffffffffffffffffffffffffffffff1673ffffffffffffffffffffffffffffffffffffffff168152602001908152602001600020600083815260200190815260200160002060009054906101000a900460ff161515141515611f2f576040517f08c379a00000000000000000000000000000000000000000000000000000000081526004018080602001828103825260128152602001807f54686973206164647265737320766f746564000000000000000000000000000081525060200191505060405180910390fd5b600160046000838152602001908152602001600020600301600082825401925050819055506001600860003373ffffffffffffffffffffffffffffffffffffffff1673ffffffffffffffffffffffffffffffffffffffff168152602001908152602001600020600083815260200190815260200160002060006101000a81548160ff021916908315150217905550600154600460008381526020019081526020016000206003015414156120675760016004600083815260200190815260200160002060040160006101000a81548160ff02191690831515021790555061206260046000838152602001908152602001600020600201546004600084815260200190815260200160002060010160009054906101000a900473ffffffffffffffffffffffffffffffffffffffff16612438565b612097565b60006004600083815260200190815260200160002060040160006101000a81548160ff0219169083151502179055505b50565b600115156000803373ffffffffffffffffffffffffffffffffffffffff1673ffffffffffffffffffffffffffffffffffffffff16815260200190815260200160002060009054906101000a900460ff161515141515612161576040517f08c379a00000000000000000000000000000000000000000000000000000000081526004018080602001828103825260118152602001807f6f6e6c79204f776e65722063616e20646f00000000000000000000000000000081525060200191505060405180910390fd5b60008060008373ffffffffffffffffffffffffffffffffffffffff1673ffffffffffffffffffffffffffffffffffffffff16815260200190815260200160002060006101000a81548160ff0219169083151502179055506001806000828254039250508190555050565b600115156000803373ffffffffffffffffffffffffffffffffffffffff1673ffffffffffffffffffffffffffffffffffffffff16815260200190815260200160002060009054906101000a900460ff161515141515612292576040517f08c379a00000000000000000000000000000000000000000000000000000000081526004018080602001828103825260118152602001807f6f6e6c79204f776e65722063616e20646f00000000000000000000000000000081525060200191505060405180910390fd5b80341415156122a057600080fd5b6064601e3073ffffffffffffffffffffffffffffffffffffffff1631028115156122c657fe5b048111151515612364576040517f08c379a00000000000000000000000000000000000000000000000000000000081526004018080602001828103825260318152602001807f20616d6f756e742067726561746572207468616e203330252045544820736d6181526020017f727420636f6e747261637420686f6c642000000000000000000000000000000081525060400191505060405180910390fd5b3373ffffffffffffffffffffffffffffffffffffffff167fe1fffcc4923d04b559f4d29a8bfc6cda04eb5b0d3c460751c2402c5c5cc9109c346040518082815260200191505060405180910390a250565b60046020528060005260406000206000915090508060000160009054906101000a900473ffffffffffffffffffffffffffffffffffffffff16908060010160009054906101000a900473ffffffffffffffffffffffffffffffffffffffff16908060020154908060030154908060040160009054906101000a900460ff16905085565b600115156000803373ffffffffffffffffffffffffffffffffffffffff1673ffffffffffffffffffffffffffffffffffffffff16815260200190815260200160002060009054906101000a900460ff1615151415156124ff576040517f08c379a00000000000000000000000000000000000000000000000000000000081526004018080602001828103825260118152602001807f6f6e6c79204f776e65722063616e20646f00000000000000000000000000000081525060200191505060405180910390fd5b813073ffffffffffffffffffffffffffffffffffffffff1631101515156125b4576040517f08c379a00000000000000000000000000000000000000000000000000000000081526004018080602001828103825260278152602001807f54686520616d6f756e7420697320746f6f206269672c206e6f7420656e6f756781526020017f68206d6f6e65790000000000000000000000000000000000000000000000000081525060400191505060405180910390fd5b3373ffffffffffffffffffffffffffffffffffffffff167f884edad9ce6fa2440d8a54cc123490eb96d2768479d49ff9c7366125a9424364836040518082815260200191505060405180910390a28073ffffffffffffffffffffffffffffffffffffffff166108fc839081150290604051600060405180830381858888f19350505050158015612648573d6000803e3d6000fd5b505050565b600115156000803373ffffffffffffffffffffffffffffffffffffffff1673ffffffffffffffffffffffffffffffffffffffff16815260200190815260200160002060009054906101000a900460ff161515141515612714576040517f08c379a00000000000000000000000000000000000000000000000000000000081526004018080602001828103825260118152602001807f6f6e6c79204f776e65722063616e20646f00000000000000000000000000000081525060200191505060405180910390fd5b60001515600a60003373ffffffffffffffffffffffffffffffffffffffff1673ffffffffffffffffffffffffffffffffffffffff168152602001908152602001600020600083815260200190815260200160002060009054906101000a900460ff1615151415156127ed576040517f08c379a00000000000000000000000000000000000000000000000000000000081526004018080602001828103825260128152602001807f54686973206164647265737320766f746564000000000000000000000000000081525060200191505060405180910390fd5b600160066000838152602001908152602001600020600201600082825401925050819055506001600a60003373ffffffffffffffffffffffffffffffffffffffff1673ffffffffffffffffffffffffffffffffffffffff168152602001908152602001600020600083815260200190815260200160002060006101000a81548160ff021916908315150217905550606460316001540281151561288c57fe5b046006600083815260200190815260200160002060020154111561291d5760016006600083815260200190815260200160002060030160006101000a81548160ff0219169083151502179055506129186006600083815260200190815260200160002060010160009054906101000a900473ffffffffffffffffffffffffffffffffffffffff1661209a565b61294d565b60006006600083815260200190815260200160002060030160006101000a81548160ff0219169083151502179055505b50565b600115156000803373ffffffffffffffffffffffffffffffffffffffff1673ffffffffffffffffffffffffffffffffffffffff16815260200190815260200160002060009054906101000a900460ff161515141515612a17576040517f08c379a00000000000000000000000000000000000000000000000000000000081526004018080602001828103825260118152602001807f6f6e6c79204f776e65722063616e20646f00000000000000000000000000000081525060200191505060405180910390fd5b3373ffffffffffffffffffffffffffffffffffffffff167fe1fffcc4923d04b559f4d29a8bfc6cda04eb5b0d3c460751c2402c5c5cc9109c826040518082815260200191505060405180910390a28060026000828254019250508190555050565b600115156000803373ffffffffffffffffffffffffffffffffffffffff1673ffffffffffffffffffffffffffffffffffffffff16815260200190815260200160002060009054906101000a900460ff161515141515612b3f576040517f08c379a00000000000000000000000000000000000000000000000000000000081526004018080602001828103825260118152602001807f6f6e6c79204f776e65722063616e20646f00000000000000000000000000000081525060200191505060405180910390fd5b8034141515612b4d57600080fd5b3373ffffffffffffffffffffffffffffffffffffffff167fe1fffcc4923d04b559f4d29a8bfc6cda04eb5b0d3c460751c2402c5c5cc9109c346040518082815260200191505060405180910390a250565b608060405190810160405280600073ffffffffffffffffffffffffffffffffffffffff168152602001600073ffffffffffffffffffffffffffffffffffffffff168152602001600081526020016000151581525090565b60a060405190810160405280600073ffffffffffffffffffffffffffffffffffffffff168152602001600073ffffffffffffffffffffffffffffffffffffffff16815260200160008152602001600081526020016000151581525090565b608060405190810160405280600073ffffffffffffffffffffffffffffffffffffffff16815260200160008152602001600081526020016000151581525090565b608060405190810160405280600073ffffffffffffffffffffffffffffffffffffffff168152602001600073ffffffffffffffffffffffffffffffffffffffff1681526020016000815260200160001515815250905600a165627a7a723058203c5f3f2ab73d1a8970e826fc4b1c0cf420849b213a4e0c7b703d9c25160e0e6f0029",
  "source": "pragma solidity 0.4.26;\r\n\r\ncontract exercise {\r\n    mapping (address => bool) owner;\r\n\r\n    uint256 public countOwner = 0;\r\n    uint256  public balanceGroup = address(this).balance;\r\n    event Deposit(address indexed  owner, uint256 value);\r\n    event Withdraw(address indexed owner, uint256 value);\r\n    \r\n    constructor() public{\r\n         owner[msg.sender] = true;\r\n         countOwner +=1;\r\n    }\r\n    \r\n    struct VoteDeposit{\r\n        address adrFrom;\r\n        uint256 money;\r\n        uint vote;\r\n        bool success;\r\n    }\r\n    struct VoteWithdraw{\r\n        address adrFrom;\r\n        address adrTo;\r\n        uint256 money;\r\n        uint vote;\r\n        bool success;\r\n    }\r\n    struct VoteAdd{\r\n        address adrFrom;\r\n        address adrNew;\r\n        uint vote;\r\n        bool success;\r\n    }\r\n    struct VoteRemove{\r\n        address adrFrom;\r\n        address adrOld;\r\n        uint vote;\r\n        bool success;\r\n    }\r\n    mapping(uint256 => VoteDeposit) public listVoteDep;\r\n    mapping(uint256 => VoteWithdraw) public listVoteWith;\r\n    mapping(uint256 => VoteAdd) public listVoteAdd;\r\n    mapping (uint256 => VoteRemove) public listVoteRemo;\r\n    mapping (address => mapping ( uint256 => bool )) public isVoteDep; \r\n    mapping (address => mapping ( uint256 => bool )) public isVoteWith;\r\n    mapping (address => mapping ( uint256 => bool )) public isVotedAdd;\r\n    mapping (address => mapping ( uint256 => bool )) public isVotedRemo;\r\n    uint256 sizeAdd = 0;\r\n    uint256 sizeDep= 0;\r\n    uint256 sizeRemo = 0;\r\n    uint256 sizeWith = 0;\r\n    modifier onlyOwner() {\r\n        require(owner[msg.sender] == true,\"only Owner can do\");\r\n        _;\r\n    }\r\n    function getBalance() public view returns (uint256) {\r\n        return address(this).balance;\r\n    }\r\n\r\n    function SeebalanceGroup() public view returns (uint256){\r\n        return balanceGroup;\r\n    }\r\n    function addOwner(address newOwner) public onlyOwner {\r\n        require(msg.sender != newOwner, \"don't add yourself\");\r\n        require(owner[newOwner] != true, \"this is already a member\");\r\n        if(countOwner == 1){\r\n            owner[newOwner] = true;\r\n            countOwner++;\r\n        }\r\n        else{\r\n            VoteAdd memory voteAdd = VoteAdd({\r\n            adrFrom: msg.sender,\r\n            adrNew: newOwner,\r\n            vote: 0,\r\n            success: false\r\n        });\r\n        sizeAdd++;\r\n        listVoteAdd[sizeAdd] = voteAdd;\r\n     }\r\n    }\r\n    function voteAddMem(uint256 idVotedAdd) public onlyOwner{\r\n        require(isVotedAdd[msg.sender][idVotedAdd] == false ,\"This adr voted \" );\r\n        listVoteAdd[idVotedAdd].vote += 1;\r\n        isVotedAdd[msg.sender][idVotedAdd] = true;\r\n        if (listVoteAdd[idVotedAdd].vote > countOwner  * 49 / 100){\r\n            listVoteAdd[idVotedAdd].success = true;\r\n            execAddOwner(listVoteAdd[idVotedAdd].adrNew);\r\n\r\n        }\r\n        else{\r\n            listVoteAdd[idVotedAdd].success = false;\r\n            \r\n        }\r\n    }\r\n    function execAddOwner(address newOwner) onlyOwner public {\r\n        owner[newOwner] = true;\r\n        countOwner+= 1;\r\n    }\r\n    function GroupDeposit(uint256 amount) payable onlyOwner public { \r\n          \r\n        VoteDeposit memory voteDeposit = VoteDeposit({\r\n            adrFrom: msg.sender,\r\n            money: amount,\r\n            vote: 0,\r\n            success: false\r\n        });\r\n        sizeDep++;\r\n        listVoteDep[sizeDep] = voteDeposit;\r\n    }\r\n    function VoteforDeposit(uint256 idVoteDep) onlyOwner public{\r\n        require(isVoteDep[msg.sender][idVoteDep] == false ,\"This address voted\" );\r\n        listVoteDep[idVoteDep].vote += 1;\r\n        isVoteDep[msg.sender][idVoteDep]  = true;\r\n        if (listVoteDep[idVoteDep].vote == countOwner){\r\n            listVoteDep[idVoteDep].success = true;\r\n            execDeposit(listVoteDep[idVoteDep].money);\r\n        }\r\n        else{\r\n            listVoteDep[idVoteDep].success = false;\r\n        }   \r\n    }\r\n    function deposit0(uint256 amount) onlyOwner  payable  public{\r\n        require (msg.value == amount);\r\n        emit Deposit(msg.sender, msg.value);\r\n\r\n    } \r\n    function deposit(uint256 amount) onlyOwner payable public{\r\n         require (msg.value == amount);\r\n         require(amount <= address(this).balance* 30 / 100, \" amount greater than 30% ETH smart contract hold \");\r\n         emit Deposit(msg.sender, msg.value);\r\n    }\r\n    function execDeposit(uint256 amount) onlyOwner{\r\n        emit Deposit(msg.sender, amount);\r\n        balanceGroup += amount;\r\n    }\r\n    function withdrawTo(uint256 amount, address _to) onlyOwner payable public{\r\n        require(this.balance >= amount, \"The amount is too big, not enough money\");\r\n        emit Withdraw(msg.sender, amount);\r\n        _to.transfer(amount);\r\n    }\r\n    function removeOwner(address oldOwmer) public onlyOwner{\r\n        require(msg.sender != oldOwmer, \"don't remove yourself\");\r\n        require(owner[oldOwmer] == true, \"this address is not a owner yet\");\r\n        VoteRemove memory voteRemove = VoteRemove({\r\n            adrFrom: msg.sender,\r\n            adrOld: oldOwmer,\r\n            vote: 0,\r\n            success: false\r\n        });\r\n        sizeRemo++;\r\n        listVoteRemo[sizeRemo] = voteRemove;\r\n    }\r\n    function VoteforRemove(uint256 idVoteRemo) onlyOwner public{\r\n        require(isVotedRemo[msg.sender][idVoteRemo] == false ,\"This address voted\" );\r\n        listVoteRemo[idVoteRemo].vote += 1;\r\n        isVotedRemo[msg.sender][idVoteRemo]  = true;\r\n        if  (listVoteRemo[idVoteRemo].vote > countOwner  * 49 / 100){\r\n            listVoteRemo[idVoteRemo].success = true;\r\n            execRemove(listVoteRemo[idVoteRemo].adrOld);\r\n        }\r\n        else{\r\n            listVoteRemo[idVoteRemo].success = false;\r\n        }   \r\n    }\r\n    function execRemove(address oldOwner) onlyOwner public {\r\n        owner[oldOwner] = false;\r\n        countOwner -= 1;\r\n    }\r\n    function GroupWithdrawTo(uint256 amount, address _to) payable onlyOwner public { \r\n        VoteWithdraw memory voteWithdraw = VoteWithdraw({\r\n            adrFrom: msg.sender,\r\n            adrTo: _to,\r\n            money: amount,\r\n            vote: 0,\r\n            success: false\r\n        });\r\n        sizeWith++;\r\n        listVoteWith[sizeWith] = voteWithdraw;\r\n    }\r\n    function VoteforWithdraw(uint256 idVoteWith) onlyOwner public{\r\n        require(isVoteWith[msg.sender][idVoteWith] == false ,\"This address voted\" );\r\n        listVoteWith[idVoteWith].vote += 1;\r\n        isVoteWith[msg.sender][idVoteWith]  = true;\r\n        if (listVoteWith[idVoteWith].vote == countOwner){\r\n            listVoteWith[idVoteWith].success = true;\r\n            withdrawTo(listVoteWith[idVoteWith].money,listVoteWith[idVoteWith].adrTo );\r\n        }\r\n        else{\r\n            listVoteWith[idVoteWith].success = false;\r\n        }   \r\n    }\r\n}\r\n   \r\n",
  "sourcePath": "C:/Users/NgocHan/Desktop/Excercise_Training_LOTUS-SOFT/contracts/exercise.sol",
  "compiler": {
    "name": "solc",
    "version": "0.4.26+commit.4563c3fc.Emscripten.clang"
  },
  "schemaVersion": "3.4.1",
  "updatedAt": "2021-07-05T15:31:18.812Z",
  "networkType": "ethereum",
  "devdoc": {
    "methods": {}
  },
  "userdoc": {
    "methods": {}
  }
}